:020000040800F2
:1000000000280020391F0008ED1C0008F31C000820
:10001000F91C0008FF1C0008051D00080000000076
:100020000000000000000000000000000B1D0008A0
:10003000171D000800000000231D00082F1D0008E8
:10004000811F0008811F0008811F0008811F000810
:10005000811F0008811F0008811F0008811F000800
:10006000811F0008811F0008811F0008811F0008F0
:10007000811F0008811F0008811F0008811F0008E0
:10008000811F0008811F0008811F0008811F0008D0
:10009000811F0008811F0008811F0008811F0008C0
:1000A000811F0008811F0008811F0008811F0008B0
:1000B0003D1D0008811F000800000000811F00088E
:1000C000811F00080000000000000000811F0008E0
:1000D00000000000811F0008811F000800000000D0
:1000E000811F0008811F0008811F00080000000018
:1000F0000000000000000000000000000000000000
:0C01000000000000000000005FF808F1A3
:10010C0010B5054C237833B9044B13B10448AFF345
:10011C0000800123237010BDA4000020000000000B
:10012C00F037000808B5034B1BB103490348AFF384
:10013C00008008BD00000000A8000020F037000877
:10014C0080B483B000AF7860044A7B68012142F828
:10015C00231000BF0C37BD4680BC7047CC0000207C
:10016C0080B582B000AF00237B6012E04B4A7B6805
:10017C0052F823204A497B6841F82320494A7B687E
:10018C0052F8232045497B6841F823207B680133D2
:10019C007B607B68022BE9DD4FF40051424802F092
:1001AC00D7F903461A463F4B1A604FF480413E483C
:1001BC0002F0CEF903461A463A4B5A604FF400410E
:1001CC00394802F0C5F903461A46364B9A600023AB
:1001DC003B605AE0324A3B6852F823202F493B6877
:1001EC0051F823309A424DD12C4A3B6852F82320C7
:1001FC002C493B6851F823309A4243D12B4A3B6837
:10020C0052F8232027493B6851F823309A4216D0E4
:10021C00244A3B6852F8232024493B6841F82320A8
:10022C00204A3B6852F82330002B2BD13868FFF75B
:10023C0087FF1F4A3B68C82142F8231022E0194A65
:10024C003B6852F82330002B17D1194A3B6852F8FF
:10025C0023305A1E16493B6841F82320144A3B6848
:10026C0052F82330002B0DDC3868FFF769FF104A79
:10027C003B68322142F8231004E00D4A3B68002110
:10028C0042F823103B6801333B603B68022BA1DD35
:10029C0000BF00BF0837BD4680BD00BF0C0000206A
:1002AC00000000201800002000080140240000205D
:1002BC00C000002080B500AFB04B1B68042B00F2CF
:1002CC007B8301A252F823F0E90200081B0300080B
:1002DC00A504000871060008FB070008032001F0C4
:1002EC006DFD032001F0C6FDA54B1B68A54A1360EC
:1002FC00A34B5B68A44A1360A14B9B68A34A136091
:10030C009E4B01221A60642001F016FC55E3A04BB1
:10031C001B68012B40F08780192001F021FC9D4BBC
:10032C001B68002B02D0012B20D03AE001224FF4A5
:10033C008071994802F023F900224FF4007196481D
:10034C0002F01DF9904B1A68944B83FB0213991021
:10035C00D317C91A0B469B000B445B00D11A0846F5
:10036C0000F04EFE8B4B01221A601AE000224FF473
:10037C008071894802F003F901224FF4007186481C
:10038C0002F0FDF8804B1B68844A82FB031292102A
:10039C00DB17D31A184600F033FE7E4B00221A608E
:1003AC0000BF7F4B1B68002B02D0012B20D03AE002
:1003BC0001224FF48061784802F0E1F800224FF4FA
:1003CC000061754802F0DBF86E4B1A68734B83FBC7
:1003DC0002139910D317C91A0B469B000B445B00F0
:1003EC00D11A084600F0A6FF6D4B01221A601AE0E4
:1003FC0000224FF48061684802F0C1F801224FF4EA
:10040C000061654802F0BBF85E4B1B68634A82FBD7
:10041C0003129210DB17D31A184600F08BFF604BB7
:10042C0000221A6000BF5F4B1B68012B11D15D4B82
:10043C0000221A60524B1B68524A1360504B5B6887
:10044C00514A13604E4B9B68504A13604B4B0A2227
:10045C001A60554B1B68012B17D1642001F06CFB03
:10046C00494B1B68013B484A1360464B1B68013BD8
:10047C00444A1360444B1B68002B06DC404B5B6802
:10048C00414A13603D4B02221A60002001F096FC99
:10049C00012001F0EFFC90E23D4B1B68012B40F07A
:1004AC00A080192001F05CFB3A4B1B68002B02D09A
:1004BC00012B20D03AE001224FF48071364802F033
:1004CC005EF800224FF40071334802F058F82F4BBD
:1004DC001A68324B83FB02139910D317C91A0B46B7
:1004EC009B000B445B00D11A084600F089FD294B98
:1004FC0001221A601AE000224FF48071264802F0A3
:10050C003EF801224FF40071234802F038F81F4BDB
:10051C001B68224A82FB03129210DB17D31A18466F
:10052C0000F06EFD1B4B00221A6000BF1C4B1B68B9
:10053C00002B02D0012B39D053E001224FF4806103
:10054C00154802F01CF800224FF40061124802F02A
:10055C0016F80C4B1A68114B83FB02139910D31726
:10056C00C91A0B469B000B445B00D11A084600F0DD
:10057C00E1FE0B4B01221A6033E000BFF8000020B3
:10058C0030000020E0000020E4000020E800002003
:10059C0040000020D8000020000801406766666615
:1005AC00DC000020CC0000205001002000224FF481
:1005BC008061A64801F0E3FF01224FF40061A348DB
:1005CC0001F0DDFFA24B1B68A24A82FB03129210C2
:1005DC00DB17D31A184600F0ADFE9F4B00221A60B1
:1005EC0000BF9E4B1B68012B11D19C4B00221A6043
:1005FC009B4B1B68964A1360994B5B68994A136036
:10060C00974B9B68984A1360984B0A221A60984B38
:10061C001B68012B1FD1642001F08EFA924B1B68D2
:10062C00013B914A13608A4B1B68013B884A13605B
:10063C008D4B1B68002B03DD854B1B68002B0ADCE4
:10064C00874B9B68884A1360854B1B68804A1360F4
:10065C00864B03221A60002001F0B0FB022001F04F
:10066C0009FCAAE1834B1B68012B40F08780192001
:10067C0001F076FA804B1B68002B02D0012B20D0A6
:10068C003AE001224FF48071704801F078FF0022AB
:10069C004FF400716D4801F072FF6D4B1A686D4B91
:1006AC0083FB02139910D317C91A0B469B000B44FA
:1006BC005B00D11A084600F0A3FC6F4B01221A60B4
:1006CC001AE000224FF48071604801F058FF0122BB
:1006DC004FF400715D4801F052FF5D4B1B685D4AA1
:1006EC0082FB03129210DB17D31A184600F088FC19
:1006FC00614B00221A6000BF574B1B68002B02D0C5
:10070C00012B20D03AE001224FF480614F4801F0D8
:10071C0036FF00224FF400614C4801F030FF514B82
:10072C001A684C4B83FB02139910D317C91A0B464A
:10073C009B000B445B00D11A084600F0FBFD464BB6
:10074C0001221A601AE000224FF480613F4801F048
:10075C0016FF01224FF400613C4801F010FF414BA1
:10076C001B683C4A82FB03129210DB17D31A184603
:10077C0000F0E0FD384B00221A6000BF374B1B68BD
:10078C00012B11D1354B00221A60354B1B68304AB6
:10079C001360334B5B68334A1360314B9B68324AAE
:1007AC001360324B0A221A60314B1B68012B17D194
:1007BC00642001F0C1F9264B1B68013B244A1360ED
:1007CC00284B1B68013B274A1360264B1B68002BE8
:1007DC0006DC234B5B68234A1360244B04221A600B
:1007EC00012001F0EBFA002001F044FBE5E0214B85
:1007FC001B68012B40F09F80192001F0B1F91E4BB2
:10080C001B68002B02D0012B38D052E001224FF490
:10081C0080710E4801F0B3FE00224FF400710B48BA
:10082C0001F0ADFE0A4B1A680A4B83FB02139910B8
:10083C00D317C91A0B469B000B445B00D11A084610
:10084C0000F0DEFB0C4B01221A6032E00008014084
:10085C00E000002067666666DC000020CC0000200B
:10086C0030000020E4000020E8000020F800002008
:10087C005001002040000020D800002000224FF43E
:10088C0080714F4801F07BFE01224FF400714C48FF
:10089C0001F075FE4B4B1B684B4A82FB0312921006
:1008AC00DB17D31A184600F0ABFB484B00221A603A
:1008BC0000BF474B1B68002B02D0012B20D03AE025
:1008CC0001224FF480613E4801F059FE00224FF4A2
:1008DC0000613B4801F053FE3E4B1A683A4B83FBD8
:1008EC0002139910D317C91A0B469B000B445B00DB
:1008FC00D11A084600F01EFD354B01221A601AE091
:10090C0000224FF480612E4801F039FE01224FF491
:10091C0000612B4801F033FE2E4B1B682A4A82FBE8
:10092C0003129210DB17D31A184600F003FD284B64
:10093C0000221A6000BF284B1B68012B11D1264BDB
:10094C0000221A60254B1B681E4A1360234B5B6800
:10095C00234A1360214B9B681E4A1360214B0A22C9
:10096C001A60214B1B68012B1FD1642001F0E4F8A5
:10097C00144B1B68013B134A1360164B1B68013B5D
:10098C00144A13600F4B1B68002B03DD114B1B68C3
:10099C00002B0ADC114B1B680A4A13600F4B9B6837
:1009AC000C4A13600F4B01221A60022001F006FA68
:1009BC00002001F05FFA00E000BF00BF80BD00BF67
:1009CC0000080140E000002067666666D800002041
:1009DC00DC000020E8000020CC00002030000020CB
:1009EC00E4000020F80000205001002080B500AF8A
:1009FC008A4B1B680A3B032B00F2EF8201A252F8D0
:100A0C0023F000BF210A0008870A0008FB0D00082C
:100A1C00590C0008824B1B68824A1360804B5B6840
:100A2C00814A13607E4B9B68804A1360804B002286
:100A3C001A60804B00221A60012204217E4801F0CA
:100A4C009EFD012220217C4801F099FD0122082104
:100A5C00794801F094FD01224021774801F08FFD87
:100A6C0001221021744801F08AFD01228021724874
:100A7C0001F085FD694B0B221A60012204216E489E
:100A8C0001F07DFD012220216B4801F078FD01224F
:100A9C000821694801F073FD01224021664801F0EC
:100AAC006EFD664B1B68012B0AD1192001F06CF806
:100ABC001021614801F07BFD80215F4801F077FD3A
:100ACC005F4B1B68012B05D15D4B00221A60534B09
:100ADC000D221A605A4B5B68012B0BD1584B00222C
:100AEC005A60504B1B68622B04DC4E4B1B68013365
:100AFC004C4A1360524B9B68012B17D1504B002270
:100B0C009A60494B1A68494B1B681A44454B1B6841
:100B1C009A420BD1434B1B68414A1360424B1B68F2
:100B2C003F4A5360414B1B683D4A9360454B1B68E1
:100B3C00012B40F05482192001F012F83C4B1B6839
:100B4C00002B02D0012B20D03AE001224FF480710F
:100B5C00394801F014FD00224FF40071364801F0C1
:100B6C000EFD304B1A68384B83FB02139910D317C8
:100B7C00C91A0B469B000B445B00D11A084600F0C7
:100B8C003FFA2B4B01221A601AE000224FF48071BD
:100B9C00294801F0F4FC01224FF40071264801F0C1
:100BAC00EEFC204B1B68284A82FB03129210DB17C9
:100BBC00D31A184600F024FA1D4B00221A6000BF0D
:100BCC001C4B1B68002B02D0012B13D007E2012217
:100BDC004FF48061184801F0D2FC00224FF4006100
:100BEC00154801F0CCFC012000F0A4FB114B0122B4
:100BFC001A6012E000224FF480610F4801F0BFFC34
:100C0C0001224FF400610C4801F0B9FC002000F007
:100C1C0091FB084B00221A6000BFE0E1F8000020B5
:100C2C0030000020EC000020F0000020F400002038
:100C3C00D8000020DC000020000801404400002007
:100C4C00CC0000204000002067666666012204216B
:100C5C00A14801F094FC012220219F4801F08FFC57
:100C6C00012210219C4801F08AFC012280219A4823
:100C7C0001F085FC994B1B68012B0AD1192000F05F
:100C8C0083FF0821944801F092FC4021924801F026
:100C9C008EFC934B1B68012B05D1914B00221A60E3
:100CAC00904B0C221A608E4B5B68012B0BD18C4B3A
:100CBC0000225A608C4B1B68622B04DC8A4B1B682D
:100CCC000133894A1360864B9B68012B17D1844BE7
:100CDC0000229A60854B1A68834B1B681A44844B1C
:100CEC001B689A420BD1824B1B68824A13607F4B64
:100CFC001B68804A53607C4B1B687E4A93607E4B1A
:100D0C001B68012B40F06D81192000F029FF7B4BF3
:100D1C001B68002B02D0012B20D03AE001224FF4AB
:100D2C0080716D4801F02BFC00224FF400716A4871
:100D3C0001F025FC6C4B1A68714B83FB0213991064
:100D4C00D317C91A0B469B000B445B00D11A0846FB
:100D5C0000F056F9694B01221A601AE000224FF498
:100D6C0080715D4801F00BFC01224FF400715A4870
:100D7C0001F005FC5C4B1B68614A82FB031292106C
:100D8C00DB17D31A184600F03BF95C4B00221A60B3
:100D9C0000BF5C4B1B68002B02D0012B13D020E151
:100DAC0001224FF480614C4801F0E9FB00224FF422
:100DBC000061494801F0E3FB022000F0BBFA514B03
:100DCC0001221A6012E000224FF48061424801F0C7
:100DDC00D6FB01224FF400613F4801F0D0FB00200C
:100DEC0000F0A8FA474B00221A6000BFF9E001227C
:100DFC000821394801F0C3FB01224021364801F09B
:100E0C00BEFB01221021344801F0B9FB01228021E4
:100E1C00314801F0B4FB314B1B68012B0AD119206E
:100E2C0000F0B2FE04212C4801F0C1FB20212A481D
:100E3C0001F0BDFB2A4B1B68012B11D1284B002262
:100E4C001A602C4B1B682A4A13602A4B5B68274A92
:100E5C001360284B9B68244A1360224B00221A60B3
:100E6C001F4B5B68012B0BD11D4B00225A601F4B93
:100E7C001B68622B04DC1D4B1B6801331B4A13607F
:100E8C00174B9B68012B17D1154B00229A60174BFF
:100E9C001A68154B1B681A44154B1B689A420BD1E8
:100EAC00134B1B68134A1360104B1B68114A536099
:100EBC000D4B1B680F4A93600F4B1B68012B40F0C6
:100ECC009280192000F04CFE0C4B1B68002B1BD0A1
:100EDC00012B39D053E000BF000801404400002032
:100EEC00CC000020F8000020F4000020F0000020CE
:100EFC00EC0000203000002040000020D800002032
:100F0C0067666666DC00002001224FF4807137486A
:100F1C0001F035FB00224FF40071344801F02FFB37
:100F2C00334B1A68334B83FB02139910D317C91A2E
:100F3C000B469B000B445B00D11A084600F060F88E
:100F4C002D4B01221A601AE000224FF480712748C1
:100F5C0001F015FB01224FF40071244801F00FFB46
:100F6C00234B1B68234A82FB03129210DB17D31A04
:100F7C00184600F045F8204B00221A6000BF1F4BAA
:100F8C001B68002B02D0012B13D02CE001224FF454
:100F9C008061164801F0F3FA00224FF40061134807
:100FAC0001F0EDFA032000F0C5F9144B01221A6090
:100FBC0012E000224FF480610C4801F0E0FA0122AB
:100FCC004FF40061094801F0DAFA002000F0B2F9A0
:100FDC000A4B00221A6000BF05E000BF04E000BF0E
:100FEC0002E000BF00E000BF00BF80BD0008014070
:100FFC00F000002067666666D8000020DC00002048
:10100C0080B582B000AF78607B68092B00F28A81D2
:10101C0001A252F823F000BF4D10000897100008F1
:10102C00E11000082B11000875110008BF11000811
:10103C0009120008531200089D120008E71200085C
:10104C0000220421BA4801F09AFA00220821B8487B
:10105C0001F095FA00221021B54801F090FA002217
:10106C002021B34801F08BFA00224021B04801F056
:10107C0086FA00228021AE4801F081FA01224FF459
:10108C008071AB4801F07BFA4DE101220421A848A4
:10109C0001F075FA00220821A54801F070FA00222F
:1010AC001021A34801F06BFA01222021A04801F085
:1010BC0066FA012240219E4801F061FA012280214A
:1010CC009B4801F05CFA01224FF48071984801F0C2
:1010DC0056FA28E100220421954801F050FA00222A
:1010EC000821934801F04BFA01221021904801F09D
:1010FC0046FA002220218E4801F041FA00224021BC
:10110C008B4801F03CFA01228021894801F037FA22
:10111C0000224FF48071864801F031FA03E100227D
:10112C000421834801F02BFA00220821804801F0A9
:10113C0026FA002210217E4801F021FA00222021FB
:10114C007B4801F01CFA01224021794801F017FA82
:10115C0001228021764801F012FA00224FF48071AE
:10116C00734801F00CFADEE001220421704801F012
:10117C0006FA002208216E4801F001FA0022102123
:10118C006B4801F0FCF901222021694801F0F7F9C4
:10119C0001224021664801F0F2F9002280216448C6
:1011AC0001F0EDF900224FF48071614801F0E7F98C
:1011BC00B9E0002204215E4801F0E1F90122082186
:1011CC005B4801F0DCF900221021594801F0D7F9F5
:1011DC0000222021564801F0D2F901224021544826
:1011EC0001F0CDF900228021514801F0C8F900220C
:1011FC004FF480714E4801F0C2F994E000220421B2
:10120C004B4801F0BCF901220821494801F0B7F91B
:10121C0000221021464801F0B2F900222021444856
:10122C0001F0ADF900224021414801F0A8F900225B
:10123C0080213F4801F0A3F900224FF480713C4813
:10124C0001F09DF96FE000220421394801F097F973
:10125C0000220821364801F092F90022102134486E
:10126C0001F08DF901222021314801F088F9012289
:10127C0040212F4801F083F9012280212C4801F0F4
:10128C007EF901224FF48071294801F078F94AE087
:10129C0000220421264801F072F90022082124487A
:1012AC0001F06DF900221021214801F068F90022AB
:1012BC0020211F4801F063F9002240211C4801F055
:1012CC005EF9002280211A4801F059F900224FF4EE
:1012DC008071174801F053F925E0002204211448CD
:1012EC0001F04DF900220821114801F048F90022C3
:1012FC0010210F4801F043F9002220210C4801F085
:10130C003EF9012240210A4801F039F900228021DE
:10131C00074801F034F900224FF48071044801F0C1
:10132C002EF900E000BF00BF0837BD4680BD00BFEE
:10133C00000C014080B582B000AF78607B68092B4F
:10134C0000F2C88101A252F823F000BF81130008FB
:10135C00D71300082D14000883140008D9140008B2
:10136C002F15000885150008DB150008311600083C
:10137C008716000800224FF40071D54801F0FFF8E1
:10138C0000224FF48061D24801F0F9F800224FF4AA
:10139C000061CF4801F0F3F800224FF48051CC48A3
:1013AC0001F0EDF800224FF40051C94801F0E7F8C4
:1013BC0000224FF48041C64801F0E1F801224FF4BD
:1013CC000041C34801F0DBF885E101224FF40071C4
:1013DC00BF4801F0D4F800224FF48061BC4801F002
:1013EC00CEF800224FF40061B94801F0C8F8012290
:1013FC004FF48051B64801F0C2F801224FF400516D
:10140C00B34801F0BCF801224FF48041B04801F020
:10141C00B6F801224FF40041AD4801F0B0F85AE1A2
:10142C0000224FF40071AA4801F0A9F800224FF4F1
:10143C008061A74801F0A3F801224FF40061A44891
:10144C0001F09DF800224FF48051A14801F097F86B
:10145C0000224FF400519E4801F091F801224FF404
:10146C0080419B4801F08BF800224FF400419848D2
:10147C0001F085F82FE100224FF40071944801F03F
:10148C007EF800224FF48061914801F078F8002238
:10149C004FF400618E4801F072F800224FF4805135
:1014AC008B4801F06CF801224FF40051884801F090
:1014BC0066F801224FF48041854801F060F8002263
:1014CC004FF40041824801F05AF804E101224FF434
:1014DC0000717F4801F053F800224FF480617C4882
:1014EC0001F04DF800224FF40061794801F047F803
:1014FC0001224FF48051764801F041F801224FF45B
:10150C000051734801F03BF800224FF480417048C1
:10151C0001F035F800224FF400416D4801F02FF82E
:10152C00D9E000224FF40071694801F028F801223B
:10153C004FF48061664801F022F800224FF40061FC
:10154C00634801F01CF800224FF48051604801F010
:10155C0016F801224FF400515D4801F010F80022FA
:10156C004FF480415A4801F00AF800224FF4004130
:10157C00574801F004F8AEE000224FF400715448D3
:10158C0000F0FDFF01224FF48061514800F0F7FF9D
:10159C0000224FF400614E4800F0F1FF00224FF49E
:1015AC0080514B4800F0EBFF00224FF400514848AB
:1015BC0000F0E5FF00224FF48041454800F0DFFFCA
:1015CC0000224FF40041424800F0D9FF83E0002292
:1015DC004FF400713E4800F0D2FF00224FF48061BE
:1015EC003B4800F0CCFF00224FF40061384800F07B
:1015FC00C6FF01224FF48051354800F0C0FF012294
:10160C004FF40051324800F0BAFF01224FF48041F0
:10161C002F4800F0B4FF01224FF400412C4800F099
:10162C00AEFF58E000224FF40071294800F0A7FFEC
:10163C0000224FF48061264800F0A1FF00224FF4F5
:10164C000061234800F09BFF00224FF4805120489A
:10165C0000F095FF00224FF400511D4800F08FFF61
:10166C0000224FF480411A4800F089FF00224FF409
:10167C000041174800F083FF2DE000224FF4007169
:10168C00134800F07CFF00224FF48061104800F0FA
:10169C0076FF00224FF400610D4800F070FF00222D
:1016AC004FF480510A4800F06AFF01224FF40051B8
:1016BC00074800F064FF00224FF48041044800F01A
:1016CC005EFF00224FF40041014800F058FF02E099
:1016DC00000C014000BF00BF0837BD4680BD00BFF5
:1016EC0080B500AF0221024800F061FF00BF80BD51
:1016FC000008014080B500AF00F03EFC00F036F869
:10170C0000F0BCF800F06EF8114801F097FB00F007
:10171C0029F9192200210F4800F062F90122002159
:10172C000D4800F05DF9012200210C4800F058F939
:10173C00012200210A4800F053F901220021094836
:10174C0000F04EF9084B00221A6000F087F9FCE714
:10175C00FC000020ED160008BD1B00086D01000800
:10176C00C1020008F9090008F800002080B590B00B
:10177C0000AF07F1180328220021184601F0A6FF3C
:10178C003B1D00221A605A609A60DA601A610223CB
:10179C00BB610123BB621023FB6200237B6307F157
:1017AC001803184600F01CFF0346002B01D000F074
:1017BC00D3F80F237B600023BB600023FB60002366
:1017CC003B6100237B613B1D0021184601F08AF927
:1017DC000346002B01D000F0BFF800BF4037BD46D8
:1017EC0080BD000080B586B000AF07F10803002271
:1017FC001A605A609A60DA603B4600221A605A609E
:10180C001D4B4FF080421A601B4B41F63F725A60E1
:10181C00194B00229A60184B0922DA60164B0022F1
:10182C001A61154B00229A61134801F0B7FA03466E
:10183C00002B01D000F090F84FF48053BB6007F1FF
:10184C00080319460C4801F035FC0346002B01D067
:10185C0000F082F800233B6000237B603B46194676
:10186C00054801F00DFE0346002B01D000F074F882
:10187C0000BF1837BD4680BDFC00002080B586B087
:10188C0000AF07F1080300221A605A609A60DA6010
:10189C00294B9B69284A43F004039361264B9B69AF
:1018AC0003F004037B607B68234B9B69224A43F063
:1018BC0008039361204B9B6903F008033B603B6872
:1018CC00002240F6FE711D4800F059FE00224FF632
:1018DC00FC711B4800F053FE40F6FE73BB60012305
:1018EC00FB6000233B6102237B6107F1080319466F
:1018FC00124800F0B1FC4FF6FC73BB600123FB6097
:10190C0000233B6102237B6107F1080319460C4855
:10191C0000F0A2FC4FF46043BB600023FB6001238A
:10192C003B6107F108031946044800F095FC00BF21
:10193C001837BD4680BD00BF0010024000080140B2
:10194C00000C014080B582B000AF786000F07AF8EE
:10195C0000BF0837BD4680BD80B400AF72B600BF73
:10196C00FEE7000080B400AF044B00221A60044B69
:10197C0000221A6000BFBD4680BC704744010020A5
:10198C004801002080B586B000AFF860B9607A607D
:10199C00182001F0DFFD03467B617B69002B01D130
:1019AC00002316E07B69FA681A607B69BA685A6092
:1019BC007B697A689A607B6900221A73074B1B68F3
:1019CC005A1C06490A607A6913617B6900225A61C4
:1019DC007B6918461837BD4680BD00BF4801002002
:1019EC0080B586B000AFF860B9607A607A68B96883
:1019FC00F868FFF7C7FF38613B69002B02D10F4B2A
:101A0C001B6817E00E4B1B68002B03D10C4A3B697B
:101A1C0013600DE00A4B1B687B6102E07B695B691C
:101A2C007B617B695B69002BF8D17B693A695A61F0
:101A3C003B691B6918461837BD4680BD480100201C
:101A4C004401002080B400AF034B01221A7000BF88
:101A5C00BD4680BC704700BF4C01002080B582B0F1
:101A6C0000AF1B4B1B78012B2ED1194B00221A7087
:101A7C00184B1B687B6024E07B685B68002B04D0F0
:101A8C007B685B685A1E7B685A607B685B68002BBE
:101A9C0014D17B681B6898477B689B68002B04D02B
:101AAC007B689A687B685A6008E07B681B691846FB
:101ABC0000F012F8074B1B687B6002E07B685B69E7
:101ACC007B607B68002BD7D100BF0837BD4680BD3B
:101ADC004C0100204401002080B584B000AF786038
:101AEC00144B1B68FB600023BB6004E0FB68BB600D
:101AFC00FB685B69FB60FB68002B04D0FB681B690F
:101B0C007A689A42F2D1FB68002B0FD0BB68002B8D
:101B1C0004D1FB685B69074A136003E0FB685A69F0
:101B2C00BB685A61F86801F01DFD00E000BF10377A
:101B3C00BD4680BD4401002080B483B000AF786006
:101B4C00054A7B681360054B00221A6000BF0C37F6
:101B5C00BD4680BC704700BF3C00002050010020F7
:101B6C0080B483B000AF7860054A7B681360054B86
:101B7C0000221A6000BF0C37BD4680BC704700BF06
:101B8C00540100204000002080B483B000AF786086
:101B9C00054A7B681360054B00221A6000BF0C37A6
:101BAC00BD4680BC704700BF580100204400002097
:101BBC0080B400AF194B1B68002B0BDD174B1B6857
:101BCC00013B164A1360154B1B68002B02DC144BAF
:101BDC0001221A60134B1B68002B0BDD114B1B6889
:101BEC00013B104A13600F4B1B68002B02DC0E4BA1
:101BFC0001221A600D4B1B68002B0BDD0B4B1B6875
:101C0C00013B0A4A1360094B1B68002B02DC084B92
:101C1C0001221A6000BFBD4680BC70473C0000200A
:101C2C0050010020540100204000002058010020E9
:101C3C004400002080B485B000AF154B9B69144A5A
:101C4C0043F001039361124B9B6903F00103BB60EA
:101C5C00BB680F4BDB690E4A43F08053D3610C4BCE
:101C6C00DB6903F080537B607B680A4B5B68FB602D
:101C7C00FB6823F0E063FB60FB6843F08063FB6070
:101C8C00044AFB68536000BF1437BD4680BC7047E4
:101C9C00001002400000014080B584B000AF7860B5
:101CAC007B681B68B3F1804F13D10C4BDB690B4A7B
:101CBC0043F00103D361094BDB6903F00103FB60C3
:101CCC00FB68002200211C2000F08FFA1C2000F081
:101CDC00A8FA00BF1037BD4680BD00BF00100240FF
:101CEC0080B400AFFEE780B400AFFEE780B400AF75
:101CFC00FEE780B400AFFEE780B400AFFEE780B42F
:101D0C0000AF00BFBD4680BC704780B400AF00BFC1
:101D1C00BD4680BC704780B400AF00BFBD4680BCE0
:101D2C00704780B500AF00F06DF900BF80BD0000BA
:101D3C0080B500AF024801F0CDF800BF80BD00BFF8
:101D4C00FC00002080B586B000AF7860144A154BBB
:101D5C00D31A7B617B693B61134B1B68002B02D14F
:101D6C00114B124A1A60104B1A687B6813443A697B
:101D7C009A4207D201F0C2FC03460C221A604FF0C3
:101D8C00FF3309E0084B1B68FB60074B1A687B6844
:101D9C001344054A1360FB6818461837BD4680BDCE
:101DAC0000280020000400005C010020B00200208C
:101DBC0080B400AF00BFBD4680BC704780B582B018
:101DCC0000AF0346FB71FB79032B4BD801A252F8F1
:101DDC0023F000BFF11D0008111E0008311E000881
:101DEC00511E000800221021214800F0C8FB0122DE
:101DFC0004211F4800F0C3FB012208211C4800F0FD
:101E0C00BEFB30E001221021194800F0B8FB002283
:101E1C000421174800F0B3FB01220821144800F0FC
:101E2C00AEFB20E001221021114800F0A8FB01229A
:101E3C0004210F4800F0A3FB002208210C4800F0FD
:101E4C009EFB10E001221021094800F098FB0122B2
:101E5C000421074800F093FB01220821044800F0FC
:101E6C008EFB00E000BF00BF0837BD4680BD00BF41
:101E7C000008014080B582B000AF0346FB71FB79CE
:101E8C00032B4BD801A252F823F000BFA91E000867
:101E9C00C91E0008E91E0008091F00080022802145
:101EAC00214800F06CFB012220211F4800F067FB49
:101EBC00012240211C4800F062FB30E0012280210D
:101ECC00194800F05CFB00222021174800F057FB5A
:101EDC0001224021144800F052FB20E00122802115
:101EEC00114800F04CFB012220210F4800F047FB69
:101EFC00002240210C4800F042FB10E0012210218E
:101F0C00094800F03CFB01220421074800F037FB94
:101F1C0001220821044800F032FB00E000BF00BFA2
:101F2C000837BD4680BD00BF00080140FFF740FFE9
:101F3C000B480C490C4A002302E0D458C45004331B
:101F4C00C4188C42F9D3094A094C002301E01360F0
:101F5C000432A242FBD301F0D7FBFFF7CBFB704757
:101F6C0000000020A400002034380008A400002049
:101F7C00AC020020FEE7000080B500AF084B1B68E8
:101F8C00074A43F010031360032000F023F90F20DD
:101F9C0000F008F8FFF74EFE0023184680BD00BF86
:101FAC000020024080B582B000AF7860124B1A68F6
:101FBC00124B1B7819464FF47A73B3FBF1F3B2FB57
:101FCC00F3F3184600F03BF90346002B01D0012334
:101FDC000EE07B680F2B0AD8002279684FF0FF3097
:101FEC0000F003F9064A7B681360002300E001232C
:101FFC0018460837BD4680BD480000205000002020
:10200C004C00002080B400AF054B1B781A46054BE2
:10201C001B681344034A136000BFBD4680BC704765
:10202C00500000206001002080B400AF024B1B6800
:10203C001846BD4680BC70476001002080B485B056
:10204C0000AF78607B6803F00703FB600C4BDB6828
:10205C00BB60BA684FF6FF031340BB60FB681A0203
:10206C00BB68134343F0BF6343F40033BB60044AC3
:10207C00BB68D36000BF1437BD4680BC704700BF3F
:10208C0000ED00E080B400AF044BDB681B0A03F0EA
:10209C0007031846BD4680BC704700BF00ED00E04A
:1020AC0080B483B000AF0346FB7197F90730002B67
:1020BC000BDBFB7903F01F02064997F907305B092C
:1020CC00012000FA02F241F8232000BF0C37BD4674
:1020DC0080BC704700E100E080B483B000AF0346E1
:1020EC003960FB7197F90730002B0ADB3B68DAB2D9
:1020FC000C4997F907301201D2B20B4483F8002334
:10210C000AE03B68DAB20849FB7903F00F03043BA1
:10211C001201D2B20B441A7600BF0C37BD4680BCFC
:10212C00704700BF00E100E000ED00E080B489B032
:10213C0000AFF860B9607A60FB6803F00703FB61DD
:10214C00FB69C3F10703042B28BF0423BB61FB69A4
:10215C000433062B02D9FB69033B00E000237B61AF
:10216C004FF0FF32BB6902FA03F3DA43BB681A4043
:10217C007B699A404FF0FF317B6901FA03F3D94335
:10218C007B680B40134318462437BD4680BC704710
:10219C0080B582B000AF78607B68013BB3F1807F83
:1021AC0001D301230FE00A4A7B68013B53600F21E6
:1021BC004FF0FF30FFF790FF054B00229A60044B65
:1021CC0007221A60002318460837BD4680BD00BFA1
:1021DC0010E000E080B582B000AF78607868FFF75F
:1021EC002DFF00BF0837BD4680BD80B586B000AF5F
:1021FC000346B9607A60FB7300237B61FFF742FFF3
:10220C0078617A68B9687869FFF790FF024697F9A8
:10221C000F3011461846FFF75FFF00BF1837BD4659
:10222C0080BD80B582B000AF0346FB7197F90730D3
:10223C001846FFF735FF00BF0837BD4680BD80B597
:10224C0082B000AF78607868FFF7A2FF03461846AB
:10225C000837BD4680BD000080B48BB000AF7860FD
:10226C00396000237B6200233B6261E101227B6ABF
:10227C0002FA03F3FB613B681B68FA691340BB610C
:10228C00BA69FB699A4240F050813B685B68974A97
:10229C0093425ED0954A934275D8954A934258D052
:1022AC00934A93426FD8934A934252D0914A9342A5
:1022BC0069D8914A93424CD08F4A934263D88F4A43
:1022CC00934246D08D4A93425DD8122B2AD8122BBA
:1022DC0059D801A252F823F05F23000839230008D3
:1022EC004B2300088D230008932300089323000838
:1022FC0093230008932300089323000893230008DA
:10230C0093230008932300089323000893230008C9
:10231C00932300089323000893230008412300080B
:10232C0055230008764A934213D02CE03B68DB68B7
:10233C003B6229E03B68DB6804333B6224E03B688A
:10234C00DB6808333B621FE03B68DB680C333B62A5
:10235C001AE03B689B68002B02D104233B6213E01C
:10236C003B689B68012B05D108233B627B68FA69AB
:10237C001A6109E008233B627B68FA695A6103E041
:10238C0000233B6200E000BFBB69FF2B01D87B68D8
:10239C0001E07B6804337B61BB69FF2B02D87B6A4D
:1023AC009B0002E07B6A083B9B003B617B691A68DF
:1023BC000F213B6901FA03F3DB431A40396A3B698D
:1023CC0001FA03F31A437B691A603B685B6803F0FC
:1023DC008053002B00F0A9804A4B9B69494A43F07B
:1023EC0001039361474B9B6903F00103BB60BB681E
:1023FC00454A7B6A9B08023352F82330FB607B6AA8
:10240C0003F003039B000F2202FA03F3DB43FA6889
:10241C001340FB607B683D4A93420DD07B683C4A7D
:10242C00934207D07B683B4A934201D1022304E0DC
:10243C00032302E0012300E000237A6A02F0030286
:10244C0092009340FA681343FB602F497B6A9B0808
:10245C000233FA6841F823203B685B6803F480136D
:10246C00002B06D02C4B9A682B49BB6913438B600D
:10247C0006E0294B9A68BB69DB43274913408B6004
:10248C003B685B6803F40013002B06D0224BDA6820
:10249C002149BB691343CB6006E01F4BDA68BB696B
:1024AC00DB431D491340CB603B685B6803F400338E
:1024BC00002B06D0184B5A681749BB6913434B6065
:1024CC0006E0154B5A68BB69DB43134913404B605C
:1024DC003B685B6803F48033002B1FD00E4B1A68EB
:1024EC000D49BB6913430B601FE000BF00003210A5
:1024FC00000031100000221000002110000012100A
:10250C0000001110001002400000014000080140C2
:10251C00000C014000100140000401400B4B1A68F4
:10252C00BB69DB43094913400B607B6A01337B6257
:10253C003B681A687B6A22FA03F3002B7FF496AE91
:10254C0000BF00BF2C37BD4680BC70470004014063
:10255C0080B485B000AF78600B467B807B689A684E
:10256C007B881340002B02D00123FB7301E0002376
:10257C00FB73FB7B18461437BD4680BC704780B498
:10258C0083B000AF78600B467B8013467B707B7802
:10259C00002B03D07A887B681A6103E07B881A04CD
:1025AC007B681A6100BF0C37BD4680BC704780B495
:1025BC0085B000AF78600B467B807B68DB68FB6086
:1025CC007A88FB6813401A04FB68D9437B880B405C
:1025DC001A437B681A6100BF1437BD4680BC704734
:1025EC0080B586B000AF78607B68002B01D10123E9
:1025FC0072E27B681B6803F00103002B00F08780FC
:10260C00924B5B6803F00C03042B0CD08F4B5B6874
:10261C0003F00C03082B12D18C4B5B6803F4803352
:10262C00B3F5803F0BD1894B1B6803F40033002BAF
:10263C006CD07B685B68002B68D101234CE27B6813
:10264C005B68B3F5803F06D1804B1B687F4A43F42F
:10265C00803313602EE07B685B68002B0CD17B4BC6
:10266C001B687A4A23F480331360784B1B68774AD3
:10267C0023F4802313601DE07B685B68B3F5A02F07
:10268C000CD1724B1B68714A43F4802313606F4B5F
:10269C001B686E4A43F4803313600BE06B4B1B6872
:1026AC006A4A23F480331360684B1B68674A23F42F
:1026BC00802313607B685B68002B13D0FFF7B4FC9E
:1026CC00386108E0FFF7B0FC02463B69D31A642B73
:1026DC0001D9032300E25D4B1B6803F40033002B8C
:1026EC00F0D014E0FFF7A0FC386108E0FFF79CFC89
:1026FC0002463B69D31A642B01D90323ECE1534BFB
:10270C001B6803F40033002BF0D100E000BF7B68A2
:10271C001B6803F00203002B63D04C4B5B6803F087
:10272C000C03002B0BD0494B5B6803F00C03082BFC
:10273C001CD1464B5B6803F48033002B16D1434B02
:10274C001B6803F00203002B05D07B681B69012B6F
:10275C0001D00123C0E13D4B1B6823F0F8027B68DC
:10276C005B69DB00394913430B603AE07B681B69FA
:10277C00002B20D0364B01221A60FFF755FC386134
:10278C0008E0FFF751FC02463B69D31A022B01D932
:10279C000323A1E12D4B1B6803F00203002BF0D0A7
:1027AC002A4B1B6823F0F8027B685B69DB00274926
:1027BC0013430B6015E0264B00221A60FFF734FC24
:1027CC00386108E0FFF730FC02463B69D31A022B54
:1027DC0001D9032380E11D4B1B6803F00203002B7E
:1027EC00F0D17B681B6803F00803002B3AD07B68A0
:1027FC009B69002B19D0174B01221A60FFF714FCB0
:10280C00386108E0FFF710FC02463B69D31A022B33
:10281C0001D9032360E10D4B5B6A03F00203002B2B
:10282C00F0D0012000F09CFA1CE00A4B00221A6048
:10283C00FFF7FAFB38610FE0FFF7F6FB02463B6946
:10284C00D31A022B08D9032346E100BF0010024023
:10285C000000424280044242924B5B6A03F0020346
:10286C00002BE9D17B681B6803F00403002B00F0FC
:10287C00A6800023FB758B4BDB6903F08053002B88
:10288C000DD1884BDB69874A43F08053D361854B6C
:10289C00DB6903F08053BB60BB680123FB75824B83
:1028AC001B6803F48073002B18D17F4B1B687E4A86
:1028BC0043F480731360FFF7B7FB386108E0FFF750
:1028CC00B3FB02463B69D31A642B01D9032303E102
:1028DC00754B1B6803F48073002BF0D07B68DB68AE
:1028EC00012B06D16F4B1B6A6E4A43F00103136236
:1028FC002DE07B68DB68002B0CD16A4B1B6A694AA4
:10290C0023F001031362674B1B6A664A23F004032E
:10291C0013621CE07B68DB68052B0CD1614B1B6AD6
:10292C00604A43F0040313625E4B1B6A5D4A43F03A
:10293C00010313620BE05B4B1B6A5A4A23F0010341
:10294C001362584B1B6A574A23F0040313627B68CB
:10295C00DB68002B15D0FFF767FB38610AE0FFF747
:10296C0063FB02463B69D31A41F28832934201D988
:10297C000323B1E04B4B1B6A03F00203002BEED098
:10298C0014E0FFF751FB38610AE0FFF74DFB0246FC
:10299C003B69D31A41F28832934201D903239BE05D
:1029AC00404B1B6A03F00203002BEED1FB7D012B85
:1029BC0005D13C4BDB693B4A23F08053D3617B68E8
:1029CC00DB69002B00F08780364B5B6803F00C034F
:1029DC00082B61D07B68DB69022B46D1334B00227C
:1029EC001A60FFF721FB386108E0FFF71DFB024678
:1029FC003B69D31A022B01D903236DE0294B1B68C9
:102A0C0003F00073002BF0D17B681B6AB3F5803F99
:102A1C0008D1244B5B6823F400327B689B68214906
:102A2C0013434B601F4B5B6823F474127B68196A69
:102A3C007B685B6A0B431B4913434B601B4B0122A6
:102A4C001A60FFF7F1FA386108E0FFF7EDFA024679
:102A5C003B69D31A022B01D903233DE0114B1B68B0
:102A6C0003F00073002BF0D035E0104B00221A60FD
:102A7C00FFF7DAFA386108E0FFF7D6FA02463B694D
:102A8C00D31A022B01D9032326E0064B1B6803F053
:102A9C000073002BF0D11EE07B68DB69012B07D1A2
:102AAC00012319E000100240007000406000424217
:102ABC000B4B5B68FB60FB6803F480327B681B6A22
:102ACC009A4206D1FB6803F470127B685B6A9A42E7
:102ADC0001D0012300E0002318461837BD4680BD05
:102AEC000010024080B584B000AF786039607B681C
:102AFC00002B01D10123D0E06A4B1B6803F00703C4
:102B0C003A689A4210D9674B1B6823F00702654953
:102B1C003B6813430B60634B1B6803F007033A6875
:102B2C009A4201D00123B8E07B681B6803F00203D2
:102B3C00002B20D07B681B6803F00403002B05D00E
:102B4C00594B5B68584A43F4E06353607B681B68DD
:102B5C0003F00803002B05D0534B5B68524A43F437
:102B6C0060535360504B5B6823F0F0027B689B68AA
:102B7C004D4913434B607B681B6803F00103002B2A
:102B8C0040D07B685B68012B07D1474B1B6803F473
:102B9C000033002B15D101237FE07B685B68022B8F
:102BAC0007D1414B1B6803F00073002B09D10123A3
:102BBC0073E03D4B1B6803F00203002B01D1012392
:102BCC006BE0394B5B6823F003027B685B6836492A
:102BDC0013434B60FFF728FAF8600AE0FFF724FA7A
:102BEC000246FB68D31A41F28832934201D903237F
:102BFC0053E02D4B5B6803F00C027B685B689B0019
:102C0C009A42EBD1274B1B6803F007033A689A42B0
:102C1C0010D2244B1B6823F0070222493B68134354
:102C2C000B60204B1B6803F007033A689A4201D0F3
:102C3C00012332E07B681B6803F00403002B08D0EF
:102C4C00194B5B6823F4E0627B68DB68164913431D
:102C5C004B607B681B6803F00803002B09D0124BF8
:102C6C005B6823F460527B681B69DB000E491343DD
:102C7C004B6000F021F802460B4B5B681B0903F01C
:102C8C000F030A49CB5C22FA03F3094A1360094B80
:102C9C001B681846FFF786F9002318461037BD4607
:102CAC0080BD00BF00200240001002400838000820
:102CBC00480000204C00002080B487B000AF0023F7
:102CCC00FB600023BB6000237B6100237B6000233F
:102CDC003B611E4B5B68FB60FB6803F00C03042B31
:102CEC0002D0082B03D027E0194B3B6127E0FB688F
:102CFC009B0C03F00F03174AD35C7B60FB6803F457
:102D0C008033002B10D0114B5B685B0C03F001037C
:102D1C00114AD35CBB607B680D4A03FB02F2BB68B3
:102D2C00B2FBF3F37B6104E07B680C4A02FB03F318
:102D3C007B617B693B6102E0054B3B6100BF3B69FA
:102D4C0018461C37BD4680BC704700BF00100240BF
:102D5C0000127A00183800082838000800093D00D5
:102D6C0080B485B000AF78600A4B1B680A4AA2FB9E
:102D7C0003235B0A7A6802FB03F3FB6000BFFB686A
:102D8C005A1EFA60002BF9D100BF00BF1437BD46A4
:102D9C0080BC704748000020D34D621080B582B0D3
:102DAC0000AF78607B68002B01D1012341E07B6888
:102DBC0093F83D30DBB2002B06D17B68002283F800
:102DCC003C207868FEF768FF7B68022283F83D2080
:102DDC007B681A687B6804331946104600F056FA73
:102DEC007B68012283F846207B68012283F83E2011
:102DFC007B68012283F83F207B68012283F8402006
:102E0C007B68012283F841207B68012283F84220F1
:102E1C007B68012283F843207B68012283F84420DD
:102E2C007B68012283F845207B68012283F83D20D2
:102E3C00002318460837BD4680BD000080B485B01D
:102E4C0000AF78607B6893F83D30DBB2012B01D08A
:102E5C00012335E07B68022283F83D207B681B68E8
:102E6C00DA687B681B6842F00102DA607B681B68D9
:102E7C00164A934209D07B681B68B3F1804F04D08B
:102E8C007B681B68124A934211D17B681B689B6854
:102E9C0003F00703FB60FB68062B10D07B681B68F4
:102EAC001A687B681B6842F001021A6007E07B68B5
:102EBC001B681A687B681B6842F001021A600023C9
:102ECC0018461437BD4680BC704700BF002C01402B
:102EDC000004004080B584B000AF78607B681B684C
:102EEC00DB68FB607B681B681B69BB60BB6803F01D
:102EFC000203002B20D0FB6803F00203002B1BD035
:102F0C007B681B686FF002021A617B6801221A77DA
:102F1C007B681B689B6903F00303002B03D0786864
:102F2C0000F098F905E0786800F08BF9786800F00B
:102F3C009AF97B6800221A77BB6803F00403002B14
:102F4C0020D0FB6803F00403002B1BD07B681B68AC
:102F5C006FF004021A617B6802221A777B681B6887
:102F6C009B6903F44073002B03D0786800F072F96E
:102F7C0005E0786800F065F9786800F074F97B6812
:102F8C0000221A77BB6803F00803002B20D0FB68E3
:102F9C0003F00803002B1BD07B681B686FF0080242
:102FAC001A617B6804221A777B681B68DB6903F063
:102FBC000303002B03D0786800F04CF905E0786827
:102FCC0000F03FF9786800F04EF97B6800221A7720
:102FDC00BB6803F01003002B20D0FB6803F0100338
:102FEC00002B1BD07B681B686FF010021A617B688A
:102FFC0008221A777B681B68DB6903F44073002B8B
:10300C0003D0786800F026F905E0786800F019F92B
:10301C00786800F028F97B6800221A77BB6803F007
:10302C000103002B0CD0FB6803F00103002B07D02D
:10303C007B681B686FF001021A617868FEF782FCEE
:10304C00BB6803F08003002B0CD0FB6803F08003FB
:10305C00002B07D07B681B686FF080021A617868C0
:10306C0000F06FFABB6803F04003002B0CD0FB6838
:10307C0003F04003002B07D07B681B686FF0400205
:10308C001A61786800F0F8F8BB6803F02003002B95
:10309C000CD0FB6803F02003002B07D07B681B6867
:1030AC006FF020021A61786800F042FA00BF103706
:1030BC00BD4680BD80B584B000AF78603960002318
:1030CC00FB737B6893F83C30012B01D10223B4E0F5
:1030DC007B68012283F83C207B68022283F83D2028
:1030EC007B681B689B68BB60BB6823F07703BB6085
:1030FC00BB6823F47F43BB607B681B68BA689A602B
:10310C003B681B68B3F5005F3ED0B3F5005F00F27F
:10311C008780B3F5805F00F08680B3F5805F7FD841
:10312C00702B1AD0702B7BD8602B50D0602B77D89B
:10313C00502B3CD0502B73D8402B58D0402B6FD8F1
:10314C00302B64D0302B6BD8202B60D0202B67D841
:10315C00002B5CD0102B5AD062E07B6818683B685F
:10316C0099683B685A683B68DB6800F06AF97B68D1
:10317C001B689B68BB60BB6843F07703BB607B68D4
:10318C001B68BA689A604FE07B6818683B6899685E
:10319C003B685A683B68DB6800F053F97B681B6836
:1031AC009A687B681B6842F480429A603CE07B68BA
:1031BC0018683B6859683B68DB681A4600F0CAF827
:1031CC007B681B685021184600F021F92CE07B68C5
:1031DC0018683B6859683B68DB681A4600F0E8F8E9
:1031EC007B681B686021184600F011F91CE07B68B5
:1031FC0018683B6859683B68DB681A4600F0AAF807
:10320C007B681B684021184600F001F90CE07B68D4
:10321C001A683B681B681946104600F0F8F803E082
:10322C000123FB7300E000BF7B68012283F83D2083
:10323C007B68002283F83C20FB7B18461037BD4688
:10324C0080BD80B483B000AF786000BF0C37BD4642
:10325C0080BC704780B483B000AF786000BF0C377F
:10326C00BD4680BC704780B483B000AF786000BFAF
:10327C000C37BD4680BC704780B483B000AF78601B
:10328C0000BF0C37BD4680BC7047000080B485B0D1
:10329C0000AF786039607B681B68FB607B682B4AE9
:1032AC00934207D07B68B3F1804F03D07B68284AE8
:1032BC00934208D1FB6823F07003FB603B685B68AA
:1032CC00FA681343FB607B68204A934207D07B6803
:1032DC00B3F1804F03D07B681D4A934208D1FB6841
:1032EC0023F44073FB603B68DB68FA681343FB60B4
:1032FC00FB6823F080023B685B691343FB607B68CF
:10330C00FA681A603B689A687B68DA623B681A68EC
:10331C007B689A627B680D4A934203D13B681A69B9
:10332C007B681A637B6801225A617B681B6903F016
:10333C000103002B05D07B681B6923F001027B681D
:10334C001A6100BF1437BD4680BC7047002C014089
:10335C000004004080B487B000AFF860B9607A60B8
:10336C00FB681B6A7B61FB681B6A23F00102FB682C
:10337C001A62FB689B693B613B6923F0F0033B617C
:10338C007B681B013A6913433B617B6923F00A0399
:10339C007B617A69BB6813437B61FB683A699A610C
:1033AC00FB687A691A6200BF1C37BD4680BC704747
:1033BC0080B487B000AFF860B9607A60FB681B6AB4
:1033CC007B61FB681B6A23F01002FB681A62FB68C6
:1033DC009B693B613B6923F470433B617B681B0336
:1033EC003A6913433B617B6923F0A0037B61BB68A3
:1033FC001B017A6913437B61FB683A699A61FB682C
:10340C007A691A6200BF1C37BD4680BC704780B415
:10341C0085B000AF786039607B689B68FB60FB68A7
:10342C0023F07003FB603A68FB68134343F0070317
:10343C00FB607B68FA689A6000BF1437BD4680BC9D
:10344C00704780B487B000AFF860B9607A603B60B9
:10345C00FB689B687B617B6923F47F437B613B68E2
:10346C001A027B681A43BB6813437A6913437B6166
:10347C00FB687A699A6000BF1C37BD4680BC7047F8
:10348C0080B485B000AF786039607B6893F83C30CD
:10349C00012B01D1022341E07B68012283F83C20FF
:1034AC007B68022283F83D207B681B685B68FB60AD
:1034BC007B681B689B68BB60FB6823F07003FB6038
:1034CC003B681B68FA681343FB607B681B68FA68EF
:1034DC005A607B681B68144A934209D07B681B684E
:1034EC00B3F1804F04D07B681B68104A93420CD117
:1034FC00BB6823F08003BB603B685B68BA6813430E
:10350C00BB607B681B68BA689A607B68012283F891
:10351C003D207B68002283F83C200023184614379A
:10352C00BD4680BC704700BF002C01400004004029
:10353C0080B483B000AF786000BF0C37BD4680BC50
:10354C00704780B483B000AF786000BF0C37BD46C5
:10355C0080BC7047024B0146186800F02BB800BFC6
:10356C00A0000020024B0146186800F0F3B800BF21
:10357C00A000002070B50E4E0C463168054611B9FE
:10358C0000F0ACF830602146284600F0A7F8431C48
:10359C000AD0C41C24F00304A04207D0211A2846E8
:1035AC0000F09CF8013001D14FF0FF34204670BD83
:1035BC00680100202DE9F843CD1C25F003050835E2
:1035CC000C2D38BF0C25002D074601DBA94205D96F
:1035DC000C2300263B603046BDE8F883DFF8D08032
:1035EC0000F068F8D8F800301C465CBB2946384619
:1035FC00FFF7C0FF431C044655D1D8F800402646BF
:10360C00002E45D1002C48D023683146384604EBB7
:10361C00030900F063F881453FD1216838466D1AE3
:10362C002946FFF7A7FF013037D023682B442360CE
:10363C00D8F80030002B38D05A68A2422BD1002287
:10364C005A600FE02268521B1FD40B2A17D961193C
:10365C00A342256018BF5960636808BFC8F8001002
:10366C0062514B60384604F10B0600F029F826F045
:10367C000706231DF21AAED09B1BA350ABE7A34247
:10368C006268DDD1C8F80020ECE723466468ACE73B
:10369C0034467668B4E71346CCE70C2338463B60D7
:1036AC0000F00EF897E72560DCE75B60FFDE00BFFB
:1036BC0064010020014800F04BB800BFA8020020B4
:1036CC00014800F046B800BFA8020020034602449F
:1036DC00934200D1704703F8011BF9E738B500237A
:1036EC00054D044608462B60FEF72CFB431C02D10B
:1036FC002B6803B1236038BDA4020020014B18686D
:10370C00704700BFA000002070B500260C4D0D4C7A
:10371C00641BA410A64209D100F064F800260A4DDF
:10372C000A4C641BA410A64205D170BD55F8043B8D
:10373C0098470136EEE755F8043B98470136F2E717
:10374C002C3800082C3800082C38000830380008B9
:10375C007047704738B50546002940D051F8043CF5
:10376C000C1F002BB8BFE418FFF7A4FF1C4A13680A
:10377C0033B9636014602846BDE83840FFF7A0BF3A
:10378C00A34208D9206821188B4201BF19685B68D5
:10379C0009182160EDE71A465B680BB1A342FAD910
:1037AC0011685018A0420BD1206801445018834274
:1037BC001160E0D118685B68084410605360DAE768
:1037CC0002D90C232B60D6E7206821188B4201BF4D
:1037DC0019685B680918216063605460CBE738BDD9
:1037EC0064010020F8B500BFF8BC08BC9E467047C9
:0C37FC00F8B500BFF8BC08BC9E46704742
:103808000000000000000000010203040607080988
:1038180002030405060708090A0B0C0D0E0F101009
:043828000102000099
:04382C00310100085E
:043830000D0100087E
:103834000100000001000000010000000100000080
:103844000100000001000000010000000100000070
:103854000100000001000000010000000100000060
:1038640008000000050000000300000064000000E0
:10387400010000000100000000127A0010000000A6
:1038840001000000000000006C010020D4010020B1
:103894003C020020000000000000000000000000C6
:1038A4000000000000000000000000000000000014
:1038B4000000000000000000000000000000000004
:1038C40000000000000000000000000000000000F4
:0438D400540000207C
:0400000508001F3997
:00000001FF
